{
  "_format": "hh-sol-artifact-1",
  "contractName": "MyNFTGame",
  "sourceName": "contracts/MyNFTGame.sol",
  "abi": [
    {
      "inputs": [
        {
          "internalType": "string[]",
          "name": "characterNames",
          "type": "string[]"
        },
        {
          "internalType": "string[]",
          "name": "characterImagesURIs",
          "type": "string[]"
        },
        {
          "internalType": "uint256[]",
          "name": "characterHp",
          "type": "uint256[]"
        },
        {
          "internalType": "uint256[]",
          "name": "characterAttackDmg",
          "type": "uint256[]"
        },
        {
          "internalType": "string",
          "name": "bossName",
          "type": "string"
        },
        {
          "internalType": "string",
          "name": "bossImageURI",
          "type": "string"
        },
        {
          "internalType": "uint256",
          "name": "bossHp",
          "type": "uint256"
        },
        {
          "internalType": "uint256",
          "name": "bossAttackDamage",
          "type": "uint256"
        }
      ],
      "stateMutability": "nonpayable",
      "type": "constructor"
    },
    {
      "anonymous": false,
      "inputs": [
        {
          "indexed": true,
          "internalType": "address",
          "name": "owner",
          "type": "address"
        },
        {
          "indexed": true,
          "internalType": "address",
          "name": "approved",
          "type": "address"
        },
        {
          "indexed": true,
          "internalType": "uint256",
          "name": "tokenId",
          "type": "uint256"
        }
      ],
      "name": "Approval",
      "type": "event"
    },
    {
      "anonymous": false,
      "inputs": [
        {
          "indexed": true,
          "internalType": "address",
          "name": "owner",
          "type": "address"
        },
        {
          "indexed": true,
          "internalType": "address",
          "name": "operator",
          "type": "address"
        },
        {
          "indexed": false,
          "internalType": "bool",
          "name": "approved",
          "type": "bool"
        }
      ],
      "name": "ApprovalForAll",
      "type": "event"
    },
    {
      "anonymous": false,
      "inputs": [
        {
          "indexed": false,
          "internalType": "uint256",
          "name": "newBossHp",
          "type": "uint256"
        },
        {
          "indexed": false,
          "internalType": "uint256",
          "name": "newPlayerHp",
          "type": "uint256"
        }
      ],
      "name": "AttackComplete",
      "type": "event"
    },
    {
      "anonymous": false,
      "inputs": [
        {
          "indexed": false,
          "internalType": "address",
          "name": "sender",
          "type": "address"
        },
        {
          "indexed": false,
          "internalType": "uint256",
          "name": "tokenId",
          "type": "uint256"
        },
        {
          "indexed": false,
          "internalType": "uint256",
          "name": "characterIndex",
          "type": "uint256"
        }
      ],
      "name": "CharacterNFTMinted",
      "type": "event"
    },
    {
      "anonymous": false,
      "inputs": [
        {
          "indexed": true,
          "internalType": "address",
          "name": "from",
          "type": "address"
        },
        {
          "indexed": true,
          "internalType": "address",
          "name": "to",
          "type": "address"
        },
        {
          "indexed": true,
          "internalType": "uint256",
          "name": "tokenId",
          "type": "uint256"
        }
      ],
      "name": "Transfer",
      "type": "event"
    },
    {
      "inputs": [
        {
          "internalType": "address",
          "name": "to",
          "type": "address"
        },
        {
          "internalType": "uint256",
          "name": "tokenId",
          "type": "uint256"
        }
      ],
      "name": "approve",
      "outputs": [],
      "stateMutability": "nonpayable",
      "type": "function"
    },
    {
      "inputs": [],
      "name": "attackBoss",
      "outputs": [],
      "stateMutability": "nonpayable",
      "type": "function"
    },
    {
      "inputs": [
        {
          "internalType": "address",
          "name": "owner",
          "type": "address"
        }
      ],
      "name": "balanceOf",
      "outputs": [
        {
          "internalType": "uint256",
          "name": "",
          "type": "uint256"
        }
      ],
      "stateMutability": "view",
      "type": "function"
    },
    {
      "inputs": [],
      "name": "bigBoss",
      "outputs": [
        {
          "internalType": "string",
          "name": "name",
          "type": "string"
        },
        {
          "internalType": "string",
          "name": "imageURI",
          "type": "string"
        },
        {
          "internalType": "uint256",
          "name": "hp",
          "type": "uint256"
        },
        {
          "internalType": "uint256",
          "name": "maxHp",
          "type": "uint256"
        },
        {
          "internalType": "uint256",
          "name": "attackDamage",
          "type": "uint256"
        }
      ],
      "stateMutability": "view",
      "type": "function"
    },
    {
      "inputs": [],
      "name": "checkIfUserHasNFT",
      "outputs": [
        {
          "components": [
            {
              "internalType": "uint256",
              "name": "characterIndex",
              "type": "uint256"
            },
            {
              "internalType": "string",
              "name": "name",
              "type": "string"
            },
            {
              "internalType": "string",
              "name": "imageURI",
              "type": "string"
            },
            {
              "internalType": "uint256",
              "name": "hp",
              "type": "uint256"
            },
            {
              "internalType": "uint256",
              "name": "maxHp",
              "type": "uint256"
            },
            {
              "internalType": "uint256",
              "name": "attackDamage",
              "type": "uint256"
            }
          ],
          "internalType": "struct MyNFTGame.CharacterAttributes",
          "name": "",
          "type": "tuple"
        }
      ],
      "stateMutability": "view",
      "type": "function"
    },
    {
      "inputs": [],
      "name": "getAllDefaultCharacters",
      "outputs": [
        {
          "components": [
            {
              "internalType": "uint256",
              "name": "characterIndex",
              "type": "uint256"
            },
            {
              "internalType": "string",
              "name": "name",
              "type": "string"
            },
            {
              "internalType": "string",
              "name": "imageURI",
              "type": "string"
            },
            {
              "internalType": "uint256",
              "name": "hp",
              "type": "uint256"
            },
            {
              "internalType": "uint256",
              "name": "maxHp",
              "type": "uint256"
            },
            {
              "internalType": "uint256",
              "name": "attackDamage",
              "type": "uint256"
            }
          ],
          "internalType": "struct MyNFTGame.CharacterAttributes[]",
          "name": "",
          "type": "tuple[]"
        }
      ],
      "stateMutability": "view",
      "type": "function"
    },
    {
      "inputs": [
        {
          "internalType": "uint256",
          "name": "tokenId",
          "type": "uint256"
        }
      ],
      "name": "getApproved",
      "outputs": [
        {
          "internalType": "address",
          "name": "",
          "type": "address"
        }
      ],
      "stateMutability": "view",
      "type": "function"
    },
    {
      "inputs": [],
      "name": "getBigBoss",
      "outputs": [
        {
          "components": [
            {
              "internalType": "string",
              "name": "name",
              "type": "string"
            },
            {
              "internalType": "string",
              "name": "imageURI",
              "type": "string"
            },
            {
              "internalType": "uint256",
              "name": "hp",
              "type": "uint256"
            },
            {
              "internalType": "uint256",
              "name": "maxHp",
              "type": "uint256"
            },
            {
              "internalType": "uint256",
              "name": "attackDamage",
              "type": "uint256"
            }
          ],
          "internalType": "struct MyNFTGame.BigBoss",
          "name": "",
          "type": "tuple"
        }
      ],
      "stateMutability": "view",
      "type": "function"
    },
    {
      "inputs": [
        {
          "internalType": "address",
          "name": "owner",
          "type": "address"
        },
        {
          "internalType": "address",
          "name": "operator",
          "type": "address"
        }
      ],
      "name": "isApprovedForAll",
      "outputs": [
        {
          "internalType": "bool",
          "name": "",
          "type": "bool"
        }
      ],
      "stateMutability": "view",
      "type": "function"
    },
    {
      "inputs": [
        {
          "internalType": "uint256",
          "name": "_characterIndex",
          "type": "uint256"
        }
      ],
      "name": "mintCharacterNFT",
      "outputs": [],
      "stateMutability": "nonpayable",
      "type": "function"
    },
    {
      "inputs": [],
      "name": "name",
      "outputs": [
        {
          "internalType": "string",
          "name": "",
          "type": "string"
        }
      ],
      "stateMutability": "view",
      "type": "function"
    },
    {
      "inputs": [
        {
          "internalType": "address",
          "name": "",
          "type": "address"
        }
      ],
      "name": "nftHolders",
      "outputs": [
        {
          "internalType": "uint256",
          "name": "",
          "type": "uint256"
        }
      ],
      "stateMutability": "view",
      "type": "function"
    },
    {
      "inputs": [
        {
          "internalType": "uint256",
          "name": "tokenId",
          "type": "uint256"
        }
      ],
      "name": "ownerOf",
      "outputs": [
        {
          "internalType": "address",
          "name": "",
          "type": "address"
        }
      ],
      "stateMutability": "view",
      "type": "function"
    },
    {
      "inputs": [
        {
          "internalType": "address",
          "name": "from",
          "type": "address"
        },
        {
          "internalType": "address",
          "name": "to",
          "type": "address"
        },
        {
          "internalType": "uint256",
          "name": "tokenId",
          "type": "uint256"
        }
      ],
      "name": "safeTransferFrom",
      "outputs": [],
      "stateMutability": "nonpayable",
      "type": "function"
    },
    {
      "inputs": [
        {
          "internalType": "address",
          "name": "from",
          "type": "address"
        },
        {
          "internalType": "address",
          "name": "to",
          "type": "address"
        },
        {
          "internalType": "uint256",
          "name": "tokenId",
          "type": "uint256"
        },
        {
          "internalType": "bytes",
          "name": "_data",
          "type": "bytes"
        }
      ],
      "name": "safeTransferFrom",
      "outputs": [],
      "stateMutability": "nonpayable",
      "type": "function"
    },
    {
      "inputs": [
        {
          "internalType": "address",
          "name": "operator",
          "type": "address"
        },
        {
          "internalType": "bool",
          "name": "approved",
          "type": "bool"
        }
      ],
      "name": "setApprovalForAll",
      "outputs": [],
      "stateMutability": "nonpayable",
      "type": "function"
    },
    {
      "inputs": [
        {
          "internalType": "bytes4",
          "name": "interfaceId",
          "type": "bytes4"
        }
      ],
      "name": "supportsInterface",
      "outputs": [
        {
          "internalType": "bool",
          "name": "",
          "type": "bool"
        }
      ],
      "stateMutability": "view",
      "type": "function"
    },
    {
      "inputs": [],
      "name": "symbol",
      "outputs": [
        {
          "internalType": "string",
          "name": "",
          "type": "string"
        }
      ],
      "stateMutability": "view",
      "type": "function"
    },
    {
      "inputs": [
        {
          "internalType": "uint256",
          "name": "_tokenId",
          "type": "uint256"
        }
      ],
      "name": "tokenURI",
      "outputs": [
        {
          "internalType": "string",
          "name": "",
          "type": "string"
        }
      ],
      "stateMutability": "view",
      "type": "function"
    },
    {
      "inputs": [
        {
          "internalType": "address",
          "name": "from",
          "type": "address"
        },
        {
          "internalType": "address",
          "name": "to",
          "type": "address"
        },
        {
          "internalType": "uint256",
          "name": "tokenId",
          "type": "uint256"
        }
      ],
      "name": "transferFrom",
      "outputs": [],
      "stateMutability": "nonpayable",
      "type": "function"
    }
  ],
  "bytecode": "0x60806040523480156200001157600080fd5b50604051620054fc380380620054fc833981810160405281019062000037919062000a5a565b6040518060400160405280600981526020017f42696720446177677300000000000000000000000000000000000000000000008152506040518060400160405280600481526020017f44415747000000000000000000000000000000000000000000000000000000008152508160009080519060200190620000bb929190620007ed565b508060019080519060200190620000d4929190620007ed565b5050506040518060a0016040528085815260200184815260200183815260200183815260200182815250600a60008201518160000190805190602001906200011e929190620007ed565b5060208201518160010190805190602001906200013d929190620007ed565b50604082015181600201556060820151816003015560808201518160040155905050620002c06040518060600160405280602a8152602001620054d2602a9139600a60000180546200018f9062000de5565b80601f0160208091040260200160405190810160405280929190818152602001828054620001bd9062000de5565b80156200020e5780601f10620001e2576101008083540402835291602001916200020e565b820191906000526020600020905b815481529060010190602001808311620001f057829003601f168201915b5050505050600a60020154600a60010180546200022b9062000de5565b80601f0160208091040260200160405190810160405280929190818152602001828054620002599062000de5565b8015620002aa5780601f106200027e57610100808354040283529160200191620002aa565b820191906000526020600020905b8154815290600101906020018083116200028c57829003601f168201915b50505050506200070260201b62001bb41760201c565b60005b8851811015620006dc5760076040518060c001604052808381526020018b84815181106200031a577f4e487b7100000000000000000000000000000000000000000000000000000000600052603260045260246000fd5b602002602001015181526020018a848151811062000361577f4e487b7100000000000000000000000000000000000000000000000000000000600052603260045260246000fd5b60200260200101518152602001898481518110620003a8577f4e487b7100000000000000000000000000000000000000000000000000000000600052603260045260246000fd5b60200260200101518152602001898481518110620003ef577f4e487b7100000000000000000000000000000000000000000000000000000000600052603260045260246000fd5b6020026020010151815260200188848151811062000436577f4e487b7100000000000000000000000000000000000000000000000000000000600052603260045260246000fd5b6020026020010151815250908060018154018082558091505060019003906000526020600020906006020160009091909190915060008201518160000155602082015181600101908051906020019062000492929190620007ed565b506040820151816002019080519060200190620004b1929190620007ed565b50606082015181600301556080820151816004015560a0820151816005015550506000600782815481106200050f577f4e487b7100000000000000000000000000000000000000000000000000000000600052603260045260246000fd5b90600052602060002090600602016040518060c001604052908160008201548152602001600182018054620005449062000de5565b80601f0160208091040260200160405190810160405280929190818152602001828054620005729062000de5565b8015620005c35780601f106200059757610100808354040283529160200191620005c3565b820191906000526020600020905b815481529060010190602001808311620005a557829003601f168201915b50505050508152602001600282018054620005de9062000de5565b80601f01602080910402602001604051908101604052809291908181526020018280546200060c9062000de5565b80156200065d5780601f1062000631576101008083540402835291602001916200065d565b820191906000526020600020905b8154815290600101906020018083116200063f57829003601f168201915b5050505050815260200160038201548152602001600482015481526020016005820154815250509050620006c4604051806060016040528060268152602001620054ac602691398260200151836060015184604001516200070260201b62001bb41760201c565b50600181620006d4919062000d48565b9050620002c3565b50620006f46006620007ae60201b62001c561760201c565b505050505050505062000ed3565b620007a8848484846040516024016200071f949392919062000c05565b6040516020818303038152906040527f8d142cdd000000000000000000000000000000000000000000000000000000007bffffffffffffffffffffffffffffffffffffffffffffffffffffffff19166020820180517bffffffffffffffffffffffffffffffffffffffffffffffffffffffff8381831617835250505050620007c460201b60201c565b50505050565b6001816000016000828254019250508190555050565b60008151905060006a636f6e736f6c652e6c6f679050602083016000808483855afa5050505050565b828054620007fb9062000de5565b90600052602060002090601f0160209004810192826200081f57600085556200086b565b82601f106200083a57805160ff19168380011785556200086b565b828001600101855582156200086b579182015b828111156200086a5782518255916020019190600101906200084d565b5b5090506200087a91906200087e565b5090565b5b80821115620008995760008160009055506001016200087f565b5090565b6000620008b4620008ae8462000c9b565b62000c67565b9050808382526020820190508260005b85811015620008f85781518501620008dd888262000a16565b845260208401935060208301925050600181019050620008c4565b5050509392505050565b600062000919620009138462000cca565b62000c67565b905080838252602082019050828560208602820111156200093957600080fd5b60005b858110156200096d578162000952888262000a43565b8452602084019350602083019250506001810190506200093c565b5050509392505050565b60006200098e620009888462000cf9565b62000c67565b905082815260208101848484011115620009a757600080fd5b620009b484828562000daf565b509392505050565b600082601f830112620009ce57600080fd5b8151620009e08482602086016200089d565b91505092915050565b600082601f830112620009fb57600080fd5b815162000a0d84826020860162000902565b91505092915050565b600082601f83011262000a2857600080fd5b815162000a3a84826020860162000977565b91505092915050565b60008151905062000a548162000eb9565b92915050565b600080600080600080600080610100898b03121562000a7857600080fd5b600089015167ffffffffffffffff81111562000a9357600080fd5b62000aa18b828c01620009bc565b985050602089015167ffffffffffffffff81111562000abf57600080fd5b62000acd8b828c01620009bc565b975050604089015167ffffffffffffffff81111562000aeb57600080fd5b62000af98b828c01620009e9565b965050606089015167ffffffffffffffff81111562000b1757600080fd5b62000b258b828c01620009e9565b955050608089015167ffffffffffffffff81111562000b4357600080fd5b62000b518b828c0162000a16565b94505060a089015167ffffffffffffffff81111562000b6f57600080fd5b62000b7d8b828c0162000a16565b93505060c062000b908b828c0162000a43565b92505060e062000ba38b828c0162000a43565b9150509295985092959890939650565b600062000bc08262000d2c565b62000bcc818562000d37565b935062000bde81856020860162000daf565b62000be98162000ea8565b840191505092915050565b62000bff8162000da5565b82525050565b6000608082019050818103600083015262000c21818762000bb3565b9050818103602083015262000c37818662000bb3565b905062000c48604083018562000bf4565b818103606083015262000c5c818462000bb3565b905095945050505050565b6000604051905081810181811067ffffffffffffffff8211171562000c915762000c9062000e79565b5b8060405250919050565b600067ffffffffffffffff82111562000cb95762000cb862000e79565b5b602082029050602081019050919050565b600067ffffffffffffffff82111562000ce85762000ce762000e79565b5b602082029050602081019050919050565b600067ffffffffffffffff82111562000d175762000d1662000e79565b5b601f19601f8301169050602081019050919050565b600081519050919050565b600082825260208201905092915050565b600062000d558262000da5565b915062000d628362000da5565b9250827fffffffffffffffffffffffffffffffffffffffffffffffffffffffffffffffff0382111562000d9a5762000d9962000e1b565b5b828201905092915050565b6000819050919050565b60005b8381101562000dcf57808201518184015260208101905062000db2565b8381111562000ddf576000848401525b50505050565b6000600282049050600182168062000dfe57607f821691505b6020821081141562000e155762000e1462000e4a565b5b50919050565b7f4e487b7100000000000000000000000000000000000000000000000000000000600052601160045260246000fd5b7f4e487b7100000000000000000000000000000000000000000000000000000000600052602260045260246000fd5b7f4e487b7100000000000000000000000000000000000000000000000000000000600052604160045260246000fd5b6000601f19601f8301169050919050565b62000ec48162000da5565b811462000ed057600080fd5b50565b6145c98062000ee36000396000f3fe608060405234801561001057600080fd5b506004361061012c5760003560e01c806395d89b41116100ad578063c87b56dd11610071578063c87b56dd14610347578063c8cf27f414610377578063d4f24c5b14610395578063e985e9c51461039f578063f8b81ef7146103cf5761012c565b806395d89b41146102b1578063a22cb465146102cf578063a9c32679146102eb578063b88d4fde1461030d578063b953084e146103295761012c565b806323b872dd116100f457806323b872dd146101e957806342842e0e146102055780636352211e1461022157806370a08231146102515780637df124a1146102815761012c565b806301ffc9a7146101315780630665f9611461016157806306fdde031461017f578063081812fc1461019d578063095ea7b3146101cd575b600080fd5b61014b60048036038101906101469190612e8e565b6103eb565b6040516101589190613bee565b60405180910390f35b6101696104cd565b6040516101769190613f87565b60405180910390f35b610187610629565b6040516101949190613c09565b60405180910390f35b6101b760048036038101906101b29190612ee0565b6106bb565b6040516101c49190613b2e565b60405180910390f35b6101e760048036038101906101e29190612e52565b610740565b005b61020360048036038101906101fe9190612d4c565b610858565b005b61021f600480360381019061021a9190612d4c565b6108b8565b005b61023b60048036038101906102369190612ee0565b6108d8565b6040516102489190613b2e565b60405180910390f35b61026b60048036038101906102669190612ce7565b61098a565b6040516102789190613fcb565b60405180910390f35b61029b60048036038101906102969190612ce7565b610a42565b6040516102a89190613fcb565b60405180910390f35b6102b9610a5a565b6040516102c69190613c09565b60405180910390f35b6102e960048036038101906102e49190612e16565b610aec565b005b6102f3610c6d565b604051610304959493929190613cd8565b60405180910390f35b61032760048036038101906103229190612d9b565b610da1565b005b610331610e03565b60405161033e9190613bcc565b60405180910390f35b610361600480360381019061035c9190612ee0565b610fae565b60405161036e9190613c09565b60405180910390f35b61037f6111c9565b60405161038c9190613fa9565b60405180910390f35b61039d6113a1565b005b6103b960048036038101906103b49190612d10565b61172c565b6040516103c69190613bee565b60405180910390f35b6103e960048036038101906103e49190612ee0565b6117c0565b005b60007f80ac58cd000000000000000000000000000000000000000000000000000000007bffffffffffffffffffffffffffffffffffffffffffffffffffffffff1916827bffffffffffffffffffffffffffffffffffffffffffffffffffffffff191614806104b657507f5b5e139f000000000000000000000000000000000000000000000000000000007bffffffffffffffffffffffffffffffffffffffffffffffffffffffff1916827bffffffffffffffffffffffffffffffffffffffffffffffffffffffff1916145b806104c657506104c582611c6c565b5b9050919050565b6104d5612b0e565b600a6040518060a00160405290816000820180546104f2906142c8565b80601f016020809104026020016040519081016040528092919081815260200182805461051e906142c8565b801561056b5780601f106105405761010080835404028352916020019161056b565b820191906000526020600020905b81548152906001019060200180831161054e57829003601f168201915b50505050508152602001600182018054610584906142c8565b80601f01602080910402602001604051908101604052809291908181526020018280546105b0906142c8565b80156105fd5780601f106105d2576101008083540402835291602001916105fd565b820191906000526020600020905b8154815290600101906020018083116105e057829003601f168201915b505050505081526020016002820154815260200160038201548152602001600482015481525050905090565b606060008054610638906142c8565b80601f0160208091040260200160405190810160405280929190818152602001828054610664906142c8565b80156106b15780601f10610686576101008083540402835291602001916106b1565b820191906000526020600020905b81548152906001019060200180831161069457829003601f168201915b5050505050905090565b60006106c682611cd6565b610705576040517f08c379a00000000000000000000000000000000000000000000000000000000081526004016106fc90613f07565b60405180910390fd5b6004600083815260200190815260200160002060009054906101000a900473ffffffffffffffffffffffffffffffffffffffff169050919050565b600061074b826108d8565b90508073ffffffffffffffffffffffffffffffffffffffff168373ffffffffffffffffffffffffffffffffffffffff1614156107bc576040517f08c379a00000000000000000000000000000000000000000000000000000000081526004016107b390613f47565b60405180910390fd5b8073ffffffffffffffffffffffffffffffffffffffff166107db611d42565b73ffffffffffffffffffffffffffffffffffffffff16148061080a575061080981610804611d42565b61172c565b5b610849576040517f08c379a000000000000000000000000000000000000000000000000000000000815260040161084090613e67565b60405180910390fd5b6108538383611d4a565b505050565b610869610863611d42565b82611e03565b6108a8576040517f08c379a000000000000000000000000000000000000000000000000000000000815260040161089f90613f67565b60405180910390fd5b6108b3838383611ee1565b505050565b6108d383838360405180602001604052806000815250610da1565b505050565b6000806002600084815260200190815260200160002060009054906101000a900473ffffffffffffffffffffffffffffffffffffffff169050600073ffffffffffffffffffffffffffffffffffffffff168173ffffffffffffffffffffffffffffffffffffffff161415610981576040517f08c379a000000000000000000000000000000000000000000000000000000000815260040161097890613ea7565b60405180910390fd5b80915050919050565b60008073ffffffffffffffffffffffffffffffffffffffff168273ffffffffffffffffffffffffffffffffffffffff1614156109fb576040517f08c379a00000000000000000000000000000000000000000000000000000000081526004016109f290613e87565b60405180910390fd5b600360008373ffffffffffffffffffffffffffffffffffffffff1673ffffffffffffffffffffffffffffffffffffffff168152602001908152602001600020549050919050565b60096020528060005260406000206000915090505481565b606060018054610a69906142c8565b80601f0160208091040260200160405190810160405280929190818152602001828054610a95906142c8565b8015610ae25780601f10610ab757610100808354040283529160200191610ae2565b820191906000526020600020905b815481529060010190602001808311610ac557829003601f168201915b5050505050905090565b610af4611d42565b73ffffffffffffffffffffffffffffffffffffffff168273ffffffffffffffffffffffffffffffffffffffff161415610b62576040517f08c379a0000000000000000000000000000000000000000000000000000000008152600401610b5990613e27565b60405180910390fd5b8060056000610b6f611d42565b73ffffffffffffffffffffffffffffffffffffffff1673ffffffffffffffffffffffffffffffffffffffff16815260200190815260200160002060008473ffffffffffffffffffffffffffffffffffffffff1673ffffffffffffffffffffffffffffffffffffffff16815260200190815260200160002060006101000a81548160ff0219169083151502179055508173ffffffffffffffffffffffffffffffffffffffff16610c1c611d42565b73ffffffffffffffffffffffffffffffffffffffff167f17307eab39ab6107e8899845ad3d59bd9653f200f220920489ca2b5937696c3183604051610c619190613bee565b60405180910390a35050565b600a806000018054610c7e906142c8565b80601f0160208091040260200160405190810160405280929190818152602001828054610caa906142c8565b8015610cf75780601f10610ccc57610100808354040283529160200191610cf7565b820191906000526020600020905b815481529060010190602001808311610cda57829003601f168201915b505050505090806001018054610d0c906142c8565b80601f0160208091040260200160405190810160405280929190818152602001828054610d38906142c8565b8015610d855780601f10610d5a57610100808354040283529160200191610d85565b820191906000526020600020905b815481529060010190602001808311610d6857829003601f168201915b5050505050908060020154908060030154908060040154905085565b610db2610dac611d42565b83611e03565b610df1576040517f08c379a0000000000000000000000000000000000000000000000000000000008152600401610de890613f67565b60405180910390fd5b610dfd8484848461213d565b50505050565b60606007805480602002602001604051908101604052809291908181526020016000905b82821015610fa557838290600052602060002090600602016040518060c001604052908160008201548152602001600182018054610e64906142c8565b80601f0160208091040260200160405190810160405280929190818152602001828054610e90906142c8565b8015610edd5780601f10610eb257610100808354040283529160200191610edd565b820191906000526020600020905b815481529060010190602001808311610ec057829003601f168201915b50505050508152602001600282018054610ef6906142c8565b80601f0160208091040260200160405190810160405280929190818152602001828054610f22906142c8565b8015610f6f5780601f10610f4457610100808354040283529160200191610f6f565b820191906000526020600020905b815481529060010190602001808311610f5257829003601f168201915b50505050508152602001600382015481526020016004820154815260200160058201548152505081526020019060010190610e27565b50505050905090565b60606000600860008481526020019081526020016000206040518060c001604052908160008201548152602001600182018054610fea906142c8565b80601f0160208091040260200160405190810160405280929190818152602001828054611016906142c8565b80156110635780601f1061103857610100808354040283529160200191611063565b820191906000526020600020905b81548152906001019060200180831161104657829003601f168201915b5050505050815260200160028201805461107c906142c8565b80601f01602080910402602001604051908101604052809291908181526020018280546110a8906142c8565b80156110f55780601f106110ca576101008083540402835291602001916110f5565b820191906000526020600020905b8154815290600101906020018083116110d857829003601f168201915b5050505050815260200160038201548152602001600482015481526020016005820154815250509050600061112d8260600151612199565b9050600061113e8360800151612199565b9050600061114f8460a00151612199565b90506000611195856020015161116489612199565b876040015187878760405160200161118196959493929190613a67565b604051602081830303815290604052612346565b90506000816040516020016111aa9190613b0c565b6040516020818303038152906040529050809650505050505050919050565b6111d1612b3d565b6000600960003373ffffffffffffffffffffffffffffffffffffffff1673ffffffffffffffffffffffffffffffffffffffff168152602001908152602001600020549050600081111561139057600860008281526020019081526020016000206040518060c001604052908160008201548152602001600182018054611256906142c8565b80601f0160208091040260200160405190810160405280929190818152602001828054611282906142c8565b80156112cf5780601f106112a4576101008083540402835291602001916112cf565b820191906000526020600020905b8154815290600101906020018083116112b257829003601f168201915b505050505081526020016002820180546112e8906142c8565b80601f0160208091040260200160405190810160405280929190818152602001828054611314906142c8565b80156113615780601f1061133657610100808354040283529160200191611361565b820191906000526020600020905b81548152906001019060200180831161134457829003601f168201915b50505050508152602001600382015481526020016004820154815260200160058201548152505091505061139e565b611398612b3d565b80925050505b90565b6000600960003373ffffffffffffffffffffffffffffffffffffffff1673ffffffffffffffffffffffffffffffffffffffff16815260200190815260200160002054905060006008600083815260200190815260200160002090506114b46040518060600160405280603c8152602001614558603c9139826001018054611427906142c8565b80601f0160208091040260200160405190810160405280929190818152602001828054611453906142c8565b80156114a05780601f10611475576101008083540402835291602001916114a0565b820191906000526020600020905b81548152906001019060200180831161148357829003601f168201915b505050505083600301548460050154612504565b61158c6040518060400160405280601b81526020017f426f73732025732068617320257320485020616e642025732041440000000000815250600a60000180546114fd906142c8565b80601f0160208091040260200160405190810160405280929190818152602001828054611529906142c8565b80156115765780601f1061154b57610100808354040283529160200191611576565b820191906000526020600020905b81548152906001019060200180831161155957829003601f168201915b5050505050600a60020154600a60040154612504565b60008160030154116115d3576040517f08c379a00000000000000000000000000000000000000000000000000000000081526004016115ca90613ec7565b60405180910390fd5b6000600a600201541161161b576040517f08c379a000000000000000000000000000000000000000000000000000000000815260040161161290613dc7565b60405180910390fd5b8060050154600a60020154101561163c576000600a6002018190555061165b565b8060050154600a6002015461165191906141de565b600a600201819055505b600a600401548160030154101561167b5760008160030181905550611699565b600a60040154816003015461169091906141de565b81600301819055505b6116c060405180606001604052806025815260200161449e60259139600a600201546125a6565b6116e66040518060600160405280602781526020016145316027913982600301546125a6565b7f838ab28464562786a6c4ab2311964b82fa60bd9b14aa7e856af1f3f18d41a414600a600201548260030154604051611720929190613fe6565b60405180910390a15050565b6000600560008473ffffffffffffffffffffffffffffffffffffffff1673ffffffffffffffffffffffffffffffffffffffff16815260200190815260200160002060008373ffffffffffffffffffffffffffffffffffffffff1673ffffffffffffffffffffffffffffffffffffffff16815260200190815260200160002060009054906101000a900460ff16905092915050565b60006117cc6006612642565b90506117d83382612650565b6040518060c0016040528083815260200160078481548110611823577f4e487b7100000000000000000000000000000000000000000000000000000000600052603260045260246000fd5b9060005260206000209060060201600101805461183f906142c8565b80601f016020809104026020016040519081016040528092919081815260200182805461186b906142c8565b80156118b85780601f1061188d576101008083540402835291602001916118b8565b820191906000526020600020905b81548152906001019060200180831161189b57829003601f168201915b50505050508152602001600784815481106118fc577f4e487b7100000000000000000000000000000000000000000000000000000000600052603260045260246000fd5b90600052602060002090600602016002018054611918906142c8565b80601f0160208091040260200160405190810160405280929190818152602001828054611944906142c8565b80156119915780601f1061196657610100808354040283529160200191611991565b820191906000526020600020905b81548152906001019060200180831161197457829003601f168201915b50505050508152602001600784815481106119d5577f4e487b7100000000000000000000000000000000000000000000000000000000600052603260045260246000fd5b906000526020600020906006020160030154815260200160078481548110611a26577f4e487b7100000000000000000000000000000000000000000000000000000000600052603260045260246000fd5b906000526020600020906006020160040154815260200160078481548110611a77577f4e487b7100000000000000000000000000000000000000000000000000000000600052603260045260246000fd5b90600052602060002090600602016005015481525060086000838152602001908152602001600020600082015181600001556020820151816001019080519060200190611ac5929190612b73565b506040820151816002019080519060200190611ae2929190612b73565b50606082015181600301556080820151816004015560a08201518160050155905050611b276040518060600160405280602e8152602001614503602e9139828461266e565b80600960003373ffffffffffffffffffffffffffffffffffffffff1673ffffffffffffffffffffffffffffffffffffffff16815260200190815260200160002081905550611b756006611c56565b7f4bc303fd457a97b4691b9af582ce71868a3d258638c8d4f8c60988a0f0bfb8cd338284604051611ba893929190613b95565b60405180910390a15050565b611c5084848484604051602401611bce9493929190613c2b565b6040516020818303038152906040527f8d142cdd000000000000000000000000000000000000000000000000000000007bffffffffffffffffffffffffffffffffffffffffffffffffffffffff19166020820180517bffffffffffffffffffffffffffffffffffffffffffffffffffffffff838183161783525050505061270d565b50505050565b6001816000016000828254019250508190555050565b60007f01ffc9a7000000000000000000000000000000000000000000000000000000007bffffffffffffffffffffffffffffffffffffffffffffffffffffffff1916827bffffffffffffffffffffffffffffffffffffffffffffffffffffffff1916149050919050565b60008073ffffffffffffffffffffffffffffffffffffffff166002600084815260200190815260200160002060009054906101000a900473ffffffffffffffffffffffffffffffffffffffff1673ffffffffffffffffffffffffffffffffffffffff1614159050919050565b600033905090565b816004600083815260200190815260200160002060006101000a81548173ffffffffffffffffffffffffffffffffffffffff021916908373ffffffffffffffffffffffffffffffffffffffff160217905550808273ffffffffffffffffffffffffffffffffffffffff16611dbd836108d8565b73ffffffffffffffffffffffffffffffffffffffff167f8c5be1e5ebec7d5bd14f71427d1e84f3dd0314c0f7b2291e5b200ac8c7c3b92560405160405180910390a45050565b6000611e0e82611cd6565b611e4d576040517f08c379a0000000000000000000000000000000000000000000000000000000008152600401611e4490613e47565b60405180910390fd5b6000611e58836108d8565b90508073ffffffffffffffffffffffffffffffffffffffff168473ffffffffffffffffffffffffffffffffffffffff161480611ec757508373ffffffffffffffffffffffffffffffffffffffff16611eaf846106bb565b73ffffffffffffffffffffffffffffffffffffffff16145b80611ed85750611ed7818561172c565b5b91505092915050565b8273ffffffffffffffffffffffffffffffffffffffff16611f01826108d8565b73ffffffffffffffffffffffffffffffffffffffff1614611f57576040517f08c379a0000000000000000000000000000000000000000000000000000000008152600401611f4e90613f27565b60405180910390fd5b600073ffffffffffffffffffffffffffffffffffffffff168273ffffffffffffffffffffffffffffffffffffffff161415611fc7576040517f08c379a0000000000000000000000000000000000000000000000000000000008152600401611fbe90613e07565b60405180910390fd5b611fd2838383612736565b611fdd600082611d4a565b6001600360008573ffffffffffffffffffffffffffffffffffffffff1673ffffffffffffffffffffffffffffffffffffffff168152602001908152602001600020600082825461202d91906141de565b925050819055506001600360008473ffffffffffffffffffffffffffffffffffffffff1673ffffffffffffffffffffffffffffffffffffffff168152602001908152602001600020600082825461208491906140fd565b92505081905550816002600083815260200190815260200160002060006101000a81548173ffffffffffffffffffffffffffffffffffffffff021916908373ffffffffffffffffffffffffffffffffffffffff160217905550808273ffffffffffffffffffffffffffffffffffffffff168473ffffffffffffffffffffffffffffffffffffffff167fddf252ad1be2c89b69c2b068fc378daa952ba7f163c4a11628f55a4df523b3ef60405160405180910390a4505050565b612148848484611ee1565b6121548484848461273b565b612193576040517f08c379a000000000000000000000000000000000000000000000000000000000815260040161218a90613da7565b60405180910390fd5b50505050565b606060008214156121e1576040518060400160405280600181526020017f30000000000000000000000000000000000000000000000000000000000000008152509050612341565b600082905060005b600082146122135780806121fc906142fa565b915050600a8261220c9190614153565b91506121e9565b60008167ffffffffffffffff811115612255577f4e487b7100000000000000000000000000000000000000000000000000000000600052604160045260246000fd5b6040519080825280601f01601f1916602001820160405280156122875781602001600182028036833780820191505090505b5090505b6000851461233a576001826122a091906141de565b9150600a856122af9190614343565b60306122bb91906140fd565b60f81b8183815181106122f7577f4e487b7100000000000000000000000000000000000000000000000000000000600052603260045260246000fd5b60200101907effffffffffffffffffffffffffffffffffffffffffffffffffffffffffffff1916908160001a905350600a856123339190614153565b945061228b565b8093505050505b919050565b6060600082519050600081141561236f57604051806020016040528060008152509150506124ff565b6000600360028361238091906140fd565b61238a9190614153565b60046123969190614184565b905060006020826123a791906140fd565b67ffffffffffffffff8111156123e6577f4e487b7100000000000000000000000000000000000000000000000000000000600052604160045260246000fd5b6040519080825280601f01601f1916602001820160405280156124185781602001600182028036833780820191505090505b50905060006040518060600160405280604081526020016144c3604091399050600181016020830160005b868110156124bc5760038101905062ffffff818a015116603f8160121c168401518060081b905060ff603f83600c1c1686015116810190508060081b905060ff603f8360061c1686015116810190508060081b905060ff603f831686015116810190508060e01b90508084526004840193505050612443565b5060038606600181146124d657600281146124e6576124f1565b613d3d60f01b60028303526124f1565b603d60f81b60018303525b508484525050819450505050505b919050565b6125a08484848460405160240161251e9493929190613c85565b6040516020818303038152906040527fd5cf17d0000000000000000000000000000000000000000000000000000000007bffffffffffffffffffffffffffffffffffffffffffffffffffffffff19166020820180517bffffffffffffffffffffffffffffffffffffffffffffffffffffffff838183161783525050505061270d565b50505050565b61263e82826040516024016125bc929190613d39565b6040516020818303038152906040527f9710a9d0000000000000000000000000000000000000000000000000000000007bffffffffffffffffffffffffffffffffffffffffffffffffffffffff19166020820180517bffffffffffffffffffffffffffffffffffffffffffffffffffffffff838183161783525050505061270d565b5050565b600081600001549050919050565b61266a8282604051806020016040528060008152506128d2565b5050565b61270883838360405160240161268693929190613d69565b6040516020818303038152906040527f969cdd03000000000000000000000000000000000000000000000000000000007bffffffffffffffffffffffffffffffffffffffffffffffffffffffff19166020820180517bffffffffffffffffffffffffffffffffffffffffffffffffffffffff838183161783525050505061270d565b505050565b60008151905060006a636f6e736f6c652e6c6f679050602083016000808483855afa5050505050565b505050565b600061275c8473ffffffffffffffffffffffffffffffffffffffff1661292d565b156128c5578373ffffffffffffffffffffffffffffffffffffffff1663150b7a02612785611d42565b8786866040518563ffffffff1660e01b81526004016127a79493929190613b49565b602060405180830381600087803b1580156127c157600080fd5b505af19250505080156127f257506040513d601f19601f820116820180604052508101906127ef9190612eb7565b60015b612875573d8060008114612822576040519150601f19603f3d011682016040523d82523d6000602084013e612827565b606091505b5060008151141561286d576040517f08c379a000000000000000000000000000000000000000000000000000000000815260040161286490613da7565b60405180910390fd5b805181602001fd5b63150b7a0260e01b7bffffffffffffffffffffffffffffffffffffffffffffffffffffffff1916817bffffffffffffffffffffffffffffffffffffffffffffffffffffffff1916149150506128ca565b600190505b949350505050565b6128dc8383612940565b6128e9600084848461273b565b612928576040517f08c379a000000000000000000000000000000000000000000000000000000000815260040161291f90613da7565b60405180910390fd5b505050565b600080823b905060008111915050919050565b600073ffffffffffffffffffffffffffffffffffffffff168273ffffffffffffffffffffffffffffffffffffffff1614156129b0576040517f08c379a00000000000000000000000000000000000000000000000000000000081526004016129a790613ee7565b60405180910390fd5b6129b981611cd6565b156129f9576040517f08c379a00000000000000000000000000000000000000000000000000000000081526004016129f090613de7565b60405180910390fd5b612a0560008383612736565b6001600360008473ffffffffffffffffffffffffffffffffffffffff1673ffffffffffffffffffffffffffffffffffffffff1681526020019081526020016000206000828254612a5591906140fd565b92505081905550816002600083815260200190815260200160002060006101000a81548173ffffffffffffffffffffffffffffffffffffffff021916908373ffffffffffffffffffffffffffffffffffffffff160217905550808273ffffffffffffffffffffffffffffffffffffffff16600073ffffffffffffffffffffffffffffffffffffffff167fddf252ad1be2c89b69c2b068fc378daa952ba7f163c4a11628f55a4df523b3ef60405160405180910390a45050565b6040518060a0016040528060608152602001606081526020016000815260200160008152602001600081525090565b6040518060c001604052806000815260200160608152602001606081526020016000815260200160008152602001600081525090565b828054612b7f906142c8565b90600052602060002090601f016020900481019282612ba15760008555612be8565b82601f10612bba57805160ff1916838001178555612be8565b82800160010185558215612be8579182015b82811115612be7578251825591602001919060010190612bcc565b5b509050612bf59190612bf9565b5090565b5b80821115612c12576000816000905550600101612bfa565b5090565b6000612c29612c2484614040565b61400f565b905082815260208101848484011115612c4157600080fd5b612c4c848285614286565b509392505050565b600081359050612c6381614441565b92915050565b600081359050612c7881614458565b92915050565b600081359050612c8d8161446f565b92915050565b600081519050612ca28161446f565b92915050565b600082601f830112612cb957600080fd5b8135612cc9848260208601612c16565b91505092915050565b600081359050612ce181614486565b92915050565b600060208284031215612cf957600080fd5b6000612d0784828501612c54565b91505092915050565b60008060408385031215612d2357600080fd5b6000612d3185828601612c54565b9250506020612d4285828601612c54565b9150509250929050565b600080600060608486031215612d6157600080fd5b6000612d6f86828701612c54565b9350506020612d8086828701612c54565b9250506040612d9186828701612cd2565b9150509250925092565b60008060008060808587031215612db157600080fd5b6000612dbf87828801612c54565b9450506020612dd087828801612c54565b9350506040612de187828801612cd2565b925050606085013567ffffffffffffffff811115612dfe57600080fd5b612e0a87828801612ca8565b91505092959194509250565b60008060408385031215612e2957600080fd5b6000612e3785828601612c54565b9250506020612e4885828601612c69565b9150509250929050565b60008060408385031215612e6557600080fd5b6000612e7385828601612c54565b9250506020612e8485828601612cd2565b9150509250929050565b600060208284031215612ea057600080fd5b6000612eae84828501612c7e565b91505092915050565b600060208284031215612ec957600080fd5b6000612ed784828501612c93565b91505092915050565b600060208284031215612ef257600080fd5b6000612f0084828501612cd2565b91505092915050565b6000612f158383613929565b905092915050565b612f2681614212565b82525050565b6000612f3782614080565b612f4181856140ae565b935083602082028501612f5385614070565b8060005b85811015612f8f5784840389528151612f708582612f09565b9450612f7b836140a1565b925060208a01995050600181019050612f57565b50829750879550505050505092915050565b612faa81614224565b82525050565b6000612fbb8261408b565b612fc581856140bf565b9350612fd5818560208601614295565b612fde81614430565b840191505092915050565b6000612ff482614096565b612ffe81856140d0565b935061300e818560208601614295565b61301781614430565b840191505092915050565b600061302d82614096565b61303781856140e1565b9350613047818560208601614295565b61305081614430565b840191505092915050565b600061306682614096565b61307081856140f2565b9350613080818560208601614295565b80840191505092915050565b6000613099600b836140f2565b91507f202d2d204e465420233a200000000000000000000000000000000000000000006000830152600b82019050919050565b60006130d96032836140e1565b91507f4552433732313a207472616e7366657220746f206e6f6e20455243373231526560008301527f63656976657220696d706c656d656e74657200000000000000000000000000006020830152604082019050919050565b600061313f6028836140e1565b91507f4572726f723a20626f7373206d757374206861766520485020746f206174746160008301527f636b20626f73732e0000000000000000000000000000000000000000000000006020830152604082019050919050565b60006131a5601c836140e1565b91507f4552433732313a20746f6b656e20616c7265616479206d696e746564000000006000830152602082019050919050565b60006131e5602f836140f2565b91507f7d2c207b202274726169745f74797065223a202256696f6c656e636520506f6960008301527f6e7473222c202276616c7565223a2000000000000000000000000000000000006020830152602f82019050919050565b600061324b600e836140f2565b91507f2c20226d61785f76616c7565223a0000000000000000000000000000000000006000830152600e82019050919050565b600061328b6024836140e1565b91507f4552433732313a207472616e7366657220746f20746865207a65726f2061646460008301527f72657373000000000000000000000000000000000000000000000000000000006020830152604082019050919050565b60006132f16019836140e1565b91507f4552433732313a20617070726f766520746f2063616c6c6572000000000000006000830152602082019050919050565b6000613331602c836140e1565b91507f4552433732313a206f70657261746f7220717565727920666f72206e6f6e657860008301527f697374656e7420746f6b656e00000000000000000000000000000000000000006020830152604082019050919050565b60006133976038836140e1565b91507f4552433732313a20617070726f76652063616c6c6572206973206e6f74206f7760008301527f6e6572206e6f7220617070726f76656420666f7220616c6c00000000000000006020830152604082019050919050565b60006133fd602a836140e1565b91507f4552433732313a2062616c616e636520717565727920666f7220746865207a6560008301527f726f2061646472657373000000000000000000000000000000000000000000006020830152604082019050919050565b60006134636029836140e1565b91507f4552433732313a206f776e657220717565727920666f72206e6f6e657869737460008301527f656e7420746f6b656e00000000000000000000000000000000000000000000006020830152604082019050919050565b60006134c9602d836140e1565b91507f4572726f723a20636861726163746572206d757374206861766520485020746f60008301527f2061747461636b20626f73732e000000000000000000000000000000000000006020830152604082019050919050565b600061352f6004836140f2565b91507f7d205d7d000000000000000000000000000000000000000000000000000000006000830152600482019050919050565b600061356f6020836140e1565b91507f4552433732313a206d696e7420746f20746865207a65726f20616464726573736000830152602082019050919050565b60006135af602c836140e1565b91507f4552433732313a20617070726f76656420717565727920666f72206e6f6e657860008301527f697374656e7420746f6b656e00000000000000000000000000000000000000006020830152604082019050919050565b60006136156029836140e1565b91507f4552433732313a207472616e73666572206f6620746f6b656e2074686174206960008301527f73206e6f74206f776e00000000000000000000000000000000000000000000006020830152604082019050919050565b600061367b6059836140f2565b91507f222c20226465736372697074696f6e223a20224f6e65206f662074686520706f60008301527f77657266756c2077617272696f7273206f66207468652042696720446177672060208301527f44616e676572204475656c2e222c2022696d616765223a2022000000000000006040830152605982019050919050565b6000613707600a836140f2565b91507f7b226e616d65223a2022000000000000000000000000000000000000000000006000830152600a82019050919050565b60006137476021836140e1565b91507f4552433732313a20617070726f76616c20746f2063757272656e74206f776e6560008301527f72000000000000000000000000000000000000000000000000000000000000006020830152604082019050919050565b60006137ad601d836140f2565b91507f646174613a6170706c69636174696f6e2f6a736f6e3b6261736536342c0000006000830152601d82019050919050565b60006137ed6031836140e1565b91507f4552433732313a207472616e736665722063616c6c6572206973206e6f74206f60008301527f776e6572206e6f7220617070726f7665640000000000000000000000000000006020830152604082019050919050565b6000613853603f836140f2565b91507f222c202261747472696275746573223a205b207b202274726169745f7479706560008301527f223a2022566974616c69747920506f696e7473222c202276616c7565223a20006020830152603f82019050919050565b600060a08301600083015184820360008601526138c98282612fe9565b915050602083015184820360208601526138e38282612fe9565b91505060408301516138f86040860182613a49565b50606083015161390b6060860182613a49565b50608083015161391e6080860182613a49565b508091505092915050565b600060c0830160008301516139416000860182613a49565b50602083015184820360208601526139598282612fe9565b915050604083015184820360408601526139738282612fe9565b91505060608301516139886060860182613a49565b50608083015161399b6080860182613a49565b5060a08301516139ae60a0860182613a49565b508091505092915050565b600060c0830160008301516139d16000860182613a49565b50602083015184820360208601526139e98282612fe9565b91505060408301518482036040860152613a038282612fe9565b9150506060830151613a186060860182613a49565b506080830151613a2b6080860182613a49565b5060a0830151613a3e60a0860182613a49565b508091505092915050565b613a528161427c565b82525050565b613a618161427c565b82525050565b6000613a72826136fa565b9150613a7e828961305b565b9150613a898261308c565b9150613a95828861305b565b9150613aa08261366e565b9150613aac828761305b565b9150613ab782613846565b9150613ac3828661305b565b9150613ace8261323e565b9150613ada828561305b565b9150613ae5826131d8565b9150613af1828461305b565b9150613afc82613522565b9150819050979650505050505050565b6000613b17826137a0565b9150613b23828461305b565b915081905092915050565b6000602082019050613b436000830184612f1d565b92915050565b6000608082019050613b5e6000830187612f1d565b613b6b6020830186612f1d565b613b786040830185613a58565b8181036060830152613b8a8184612fb0565b905095945050505050565b6000606082019050613baa6000830186612f1d565b613bb76020830185613a58565b613bc46040830184613a58565b949350505050565b60006020820190508181036000830152613be68184612f2c565b905092915050565b6000602082019050613c036000830184612fa1565b92915050565b60006020820190508181036000830152613c238184613022565b905092915050565b60006080820190508181036000830152613c458187613022565b90508181036020830152613c598186613022565b9050613c686040830185613a58565b8181036060830152613c7a8184613022565b905095945050505050565b60006080820190508181036000830152613c9f8187613022565b90508181036020830152613cb38186613022565b9050613cc26040830185613a58565b613ccf6060830184613a58565b95945050505050565b600060a0820190508181036000830152613cf28188613022565b90508181036020830152613d068187613022565b9050613d156040830186613a58565b613d226060830185613a58565b613d2f6080830184613a58565b9695505050505050565b60006040820190508181036000830152613d538185613022565b9050613d626020830184613a58565b9392505050565b60006060820190508181036000830152613d838186613022565b9050613d926020830185613a58565b613d9f6040830184613a58565b949350505050565b60006020820190508181036000830152613dc0816130cc565b9050919050565b60006020820190508181036000830152613de081613132565b9050919050565b60006020820190508181036000830152613e0081613198565b9050919050565b60006020820190508181036000830152613e208161327e565b9050919050565b60006020820190508181036000830152613e40816132e4565b9050919050565b60006020820190508181036000830152613e6081613324565b9050919050565b60006020820190508181036000830152613e808161338a565b9050919050565b60006020820190508181036000830152613ea0816133f0565b9050919050565b60006020820190508181036000830152613ec081613456565b9050919050565b60006020820190508181036000830152613ee0816134bc565b9050919050565b60006020820190508181036000830152613f0081613562565b9050919050565b60006020820190508181036000830152613f20816135a2565b9050919050565b60006020820190508181036000830152613f4081613608565b9050919050565b60006020820190508181036000830152613f608161373a565b9050919050565b60006020820190508181036000830152613f80816137e0565b9050919050565b60006020820190508181036000830152613fa181846138ac565b905092915050565b60006020820190508181036000830152613fc381846139b9565b905092915050565b6000602082019050613fe06000830184613a58565b92915050565b6000604082019050613ffb6000830185613a58565b6140086020830184613a58565b9392505050565b6000604051905081810181811067ffffffffffffffff8211171561403657614035614401565b5b8060405250919050565b600067ffffffffffffffff82111561405b5761405a614401565b5b601f19601f8301169050602081019050919050565b6000819050602082019050919050565b600081519050919050565b600081519050919050565b600081519050919050565b6000602082019050919050565b600082825260208201905092915050565b600082825260208201905092915050565b600082825260208201905092915050565b600082825260208201905092915050565b600081905092915050565b60006141088261427c565b91506141138361427c565b9250827fffffffffffffffffffffffffffffffffffffffffffffffffffffffffffffffff0382111561414857614147614374565b5b828201905092915050565b600061415e8261427c565b91506141698361427c565b925082614179576141786143a3565b5b828204905092915050565b600061418f8261427c565b915061419a8361427c565b9250817fffffffffffffffffffffffffffffffffffffffffffffffffffffffffffffffff04831182151516156141d3576141d2614374565b5b828202905092915050565b60006141e98261427c565b91506141f48361427c565b92508282101561420757614206614374565b5b828203905092915050565b600061421d8261425c565b9050919050565b60008115159050919050565b60007fffffffff0000000000000000000000000000000000000000000000000000000082169050919050565b600073ffffffffffffffffffffffffffffffffffffffff82169050919050565b6000819050919050565b82818337600083830152505050565b60005b838110156142b3578082015181840152602081019050614298565b838111156142c2576000848401525b50505050565b600060028204905060018216806142e057607f821691505b602082108114156142f4576142f36143d2565b5b50919050565b60006143058261427c565b91507fffffffffffffffffffffffffffffffffffffffffffffffffffffffffffffffff82141561433857614337614374565b5b600182019050919050565b600061434e8261427c565b91506143598361427c565b925082614369576143686143a3565b5b828206905092915050565b7f4e487b7100000000000000000000000000000000000000000000000000000000600052601160045260246000fd5b7f4e487b7100000000000000000000000000000000000000000000000000000000600052601260045260246000fd5b7f4e487b7100000000000000000000000000000000000000000000000000000000600052602260045260246000fd5b7f4e487b7100000000000000000000000000000000000000000000000000000000600052604160045260246000fd5b6000601f19601f8301169050919050565b61444a81614212565b811461445557600080fd5b50565b61446181614224565b811461446c57600080fd5b50565b61447881614230565b811461448357600080fd5b50565b61448f8161427c565b811461449a57600080fd5b5056fe506c617965722061747461636b656420626f73732e204e657720626f73732068703a2025734142434445464748494a4b4c4d4e4f505152535455565758595a6162636465666768696a6b6c6d6e6f707172737475767778797a303132333435363738392b2f4d696e746564204e465420772f20746f6b656e496420257320616e6420636861726163746572496e646578202573426f73732061747461636b656420706c617965722e204e657720706c617965722068703a2025730a506c6179657220772f206368617261637465722025732061626f757420746f2061747461636b2e2048617320257320485020616e64202573204144a2646970667358221220ceba08325ca0ddc397b951b3fc1a41294d0629ca0908f3c5512bed9efc11d81464736f6c63430008000033446f6e6520696e74697469616c697a696e6720257320772f2048502025732c20696d67202573446f6e6520696e697469616c697a696e6720626f737320257320772f2048502025732c20696d67202573",
  "linkReferences": {},
  "deployedLinkReferences": {}
}